{
  "_format": "hh3-artifact-1",
  "contractName": "AtomicEscrow",
  "sourceName": "contracts/AtomicEscrow.sol",
  "abi": [
    {
      "inputs": [],
      "stateMutability": "nonpayable",
      "type": "constructor"
    },
    {
      "anonymous": false,
      "inputs": [
        {
          "indexed": true,
          "internalType": "bytes32",
          "name": "transactionId",
          "type": "bytes32"
        },
        {
          "indexed": false,
          "internalType": "address",
          "name": "merchant",
          "type": "address"
        },
        {
          "indexed": false,
          "internalType": "uint256",
          "name": "amount",
          "type": "uint256"
        }
      ],
      "name": "FundsReleased",
      "type": "event"
    },
    {
      "anonymous": false,
      "inputs": [
        {
          "indexed": true,
          "internalType": "bytes32",
          "name": "transactionId",
          "type": "bytes32"
        },
        {
          "indexed": true,
          "internalType": "address",
          "name": "user",
          "type": "address"
        },
        {
          "indexed": false,
          "internalType": "uint256",
          "name": "amount",
          "type": "uint256"
        }
      ],
      "name": "PaymentInitiated",
      "type": "event"
    },
    {
      "anonymous": false,
      "inputs": [
        {
          "indexed": true,
          "internalType": "bytes32",
          "name": "transactionId",
          "type": "bytes32"
        },
        {
          "indexed": false,
          "internalType": "address",
          "name": "user",
          "type": "address"
        },
        {
          "indexed": false,
          "internalType": "uint256",
          "name": "amount",
          "type": "uint256"
        },
        {
          "indexed": false,
          "internalType": "string",
          "name": "reason",
          "type": "string"
        }
      ],
      "name": "RefundExecuted",
      "type": "event"
    },
    {
      "inputs": [
        {
          "internalType": "address payable",
          "name": "_merchant",
          "type": "address"
        },
        {
          "internalType": "bytes32",
          "name": "_transactionId",
          "type": "bytes32"
        }
      ],
      "name": "depositFunds",
      "outputs": [],
      "stateMutability": "payable",
      "type": "function"
    },
    {
      "inputs": [
        {
          "internalType": "bytes32",
          "name": "_transactionId",
          "type": "bytes32"
        }
      ],
      "name": "finalizeTransaction",
      "outputs": [],
      "stateMutability": "nonpayable",
      "type": "function"
    },
    {
      "inputs": [],
      "name": "owner",
      "outputs": [
        {
          "internalType": "address",
          "name": "",
          "type": "address"
        }
      ],
      "stateMutability": "view",
      "type": "function"
    },
    {
      "inputs": [
        {
          "internalType": "bytes32",
          "name": "_transactionId",
          "type": "bytes32"
        }
      ],
      "name": "refundUser",
      "outputs": [],
      "stateMutability": "nonpayable",
      "type": "function"
    },
    {
      "inputs": [
        {
          "internalType": "bytes32",
          "name": "",
          "type": "bytes32"
        }
      ],
      "name": "transactions",
      "outputs": [
        {
          "internalType": "address payable",
          "name": "user",
          "type": "address"
        },
        {
          "internalType": "address payable",
          "name": "merchant",
          "type": "address"
        },
        {
          "internalType": "uint256",
          "name": "amount",
          "type": "uint256"
        },
        {
          "internalType": "uint256",
          "name": "timestamp",
          "type": "uint256"
        },
        {
          "internalType": "enum AtomicEscrow.PaymentStatus",
          "name": "status",
          "type": "uint8"
        },
        {
          "internalType": "bool",
          "name": "isLocked",
          "type": "bool"
        }
      ],
      "stateMutability": "view",
      "type": "function"
    }
  ],
  "bytecode": "0x6080604052348015600f57600080fd5b50600080546001600160a01b03191633179055610a02806100316000396000f3fe60806040526004361061004a5760003560e01c80631431b3f51461004f578063642f2eaf146100645780637f5eedae146100e25780638da5cb5b14610102578063b2efda831461013a575b600080fd5b61006261005d36600461087d565b61015a565b005b34801561007057600080fd5b506100c761007f3660046108b5565b6001602081905260009182526040909120805491810154600282015460038301546004909301546001600160a01b039485169490921692909160ff8082169161010090041686565b6040516100d9969594939291906108e4565b60405180910390f35b3480156100ee57600080fd5b506100626100fd3660046108b5565b610335565b34801561010e57600080fd5b50600054610122906001600160a01b031681565b6040516001600160a01b0390911681526020016100d9565b34801561014657600080fd5b506100626101553660046108b5565b610638565b600034116101bd5760405162461bcd60e51b815260206004820152602560248201527f596f75206d7573742073656e642045544820746f2063726561746520616e20656044820152647363726f7760d81b60648201526084015b60405180910390fd5b6000818152600160205260409020600201541561021c5760405162461bcd60e51b815260206004820152601d60248201527f5472616e73616374696f6e20494420616c72656164792065786973747300000060448201526064016101b4565b6040805160c0810182523381526001600160a01b038416602082015234918101919091524260608201526080810160008152600160209182018190526000848152818352604090819020845181546001600160a01b03199081166001600160a01b039283161783559486015182850180549096169116179093558301516002808401919091556060840151600384015560808401516004840180549193909260ff199092169184908111156102d3576102d36108ce565b021790555060a09190910151600490910180549115156101000261ff0019909216919091179055604051348152339082907f369e2c27dca362935ec5abd15452d4e093b37fabc24e66abbae14e63aa4105929060200160405180910390a35050565b60008181526001602052604090206004810154610100900460ff166103985760405162461bcd60e51b81526020600482015260196024820152785472616e73616374696f6e206973206e6f742061637469766560381b60448201526064016101b4565b6000600482015460ff1660028111156103b3576103b36108ce565b146104005760405162461bcd60e51b815260206004820152601d60248201527f5472616e73616374696f6e20616c72656164792070726f63657373656400000060448201526064016101b4565b6000805482546003840154336001600160a01b03938416811494929093169092149161042d90603c610941565b42119050828061043a5750815b806104425750805b6104a45760405162461bcd60e51b815260206004820152602d60248201527f4f6e6c7920757365722c206f776e65722c206f722061667465722074696d656f60448201526c1d5d0818d85b881c99599d5b99609a1b60648201526084016101b4565b60048401805461ffff191660029081179091558454908501546040516000926001600160a01b031691908381818185875af1925050503d8060008114610506576040519150601f19603f3d011682016040523d82523d6000602084013e61050b565b606091505b50509050806105555760405162461bcd60e51b81526020600482015260166024820152751499599d5b99081d1c985b9cd9995c8819985a5b195960521b60448201526064016101b4565b8454600286015487917fc6d01fc6815f4403ed986154043cd742d886120b6e55dc93e69d357dc94eb0ab916001600160a01b0390911690856105f057876105c2576040518060400160405280600e81526020016d155cd95c8814995c5d595cdd195960921b815250610619565b6040518060400160405280601081526020016f13dc9858db1948151c9a59d9d95c995960821b815250610619565b6040518060400160405280600f81526020016e151a5b595bdd5d08115e1c1a5c9959608a1b8152505b60405161062893929190610968565b60405180910390a2505050505050565b6000546001600160a01b031633146106a35760405162461bcd60e51b815260206004820152602860248201527f4f6e6c7920746865204f7261636c652f4261636b656e642063616e2074726967604482015267676572207468697360c01b60648201526084016101b4565b60008181526001602052604090206004810154610100900460ff166107065760405162461bcd60e51b81526020600482015260196024820152785472616e73616374696f6e206973206e6f742061637469766560381b60448201526064016101b4565b6000600482015460ff166002811115610721576107216108ce565b1461076e5760405162461bcd60e51b815260206004820152601d60248201527f5472616e73616374696f6e20616c72656164792066696e616c697a656400000060448201526064016101b4565b60048101805461ffff1916600190811790915581015460028201546040516000926001600160a01b031691908381818185875af1925050503d80600081146107d2576040519150601f19603f3d011682016040523d82523d6000602084013e6107d7565b606091505b50509050806108285760405162461bcd60e51b815260206004820152601b60248201527f5472616e7366657220746f206d65726368616e74206661696c6564000000000060448201526064016101b4565b60018201546002830154604080516001600160a01b039093168352602083019190915284917f75d86e5bfa1175e2dc677f3abe3aebba3069f2db6ae492f1734d4b4bc65f61c1910160405180910390a2505050565b6000806040838503121561089057600080fd5b82356001600160a01b03811681146108a757600080fd5b946020939093013593505050565b6000602082840312156108c757600080fd5b5035919050565b634e487b7160e01b600052602160045260246000fd5b6001600160a01b03878116825286166020820152604081018590526060810184905260c081016003841061092857634e487b7160e01b600052602160045260246000fd5b83608083015282151560a0830152979650505050505050565b8082018082111561096257634e487b7160e01b600052601160045260246000fd5b92915050565b60018060a01b0384168152826020820152606060408201526000825180606084015260005b818110156109aa576020818601810151608086840101520161098d565b506000608082850101526080601f19601f83011684010191505094935050505056fea26469706673582212208a29300a7ebc5bca612592bf2de805ae075b3253c7e62f305ce65f96e55fb90864736f6c634300081c0033",
  "linkReferences": {},
  "deployedLinkReferences": {},
  "immutableReferences": {},
  "inputSourceName": "project/contracts/AtomicEscrow.sol",
  "buildInfoId": "solc-0_8_28-eef9b3b34ee3a3ca195887e3aa61704f1f2e4e3c"
}